:020000040000fa
:080000000002040000000000f2
:020000040000fa
:100400004f6222000e7f24000e01880000000000d1
:100410000c00070020fb290001002000110007004c
:10042000000020000000e000020032000000020096
:100430000000000014ad0200000000000040da00df
:100440000000fe004440a900001a21000000e00066
:100450000300320000002000a00188004440a800f2
:100460000000060091018800800078000000eb0089
:1004700015003700e280400032a0b4009101ba00bc
:10048000e280400032a0b4009102ba00e280400055
:1004900032a0b4000002eb00472bde00f507b200eb
:1004a000602ce10004003a000059eb008301e900f0
:1004b000fdff3e00040037006128e100010032002a
:1004c0000082eb00040007001101ba000200e00006
:1004d000e8ff3a00000006003159ba008301e90044
:1004e0000c0032002159ba008301e90008003200f3
:1004f0000400e00003003a00e280400032a0b400b3
:10050000f5ff370011d9ba008301e900faff3a007c
:100510008100e800e180400032a0b4000000060045
:100520000040da000000fe000a00fa0080017800b6
:10053000e20f500028003e0010318100e10f500012
:1005400008003200802320000000e0000500320097
:10055000042320002523200046232000800178006a
:10056000040037000422200025222000462220001b
:1005700083222000144090000004e00004003500b5
:100580008009eb00144090000074a0001042980015
:10059000154090000028a30003003a001540900089
:1005a0000024a000904298008001eb000700370073
:1005b000154090000008a300fdff320063c07800e2
:1005c0000000fb00000b78008301e800828f5100df
:1005d000f7ff3a000800370030002000b0bf9f004e
:1005e000c3bf9f00d1bf9f00e2bf9f006a8057003a
:1005f00000c0da006fb99700020078000080fa00ae
:1006000000000600889fbe008a9fbe00010578009a
:100610000100e0000400350008003c000000e0009c
:10062000200032000500370060001000e080180054
:1006300002003b0001f02c001a0037000004be004d
:100640006011b8006b0920000982cf000200390058
:100650000882cf000441b000694252000e0032000f
:1006600008003b0082817100610164008904d100af
:100670000884d3008b05e8000442e800f9ff3a0043
:10068000050037000804440089844c008b05e9000c
:100690000442e900fbff3a00800007000af0a700cf
:1006a00001f0a0004f05be004f04be000000060090
:1006b000889fbe008a9fbe008c1f78009d000700a7
:1006c000a400330003866c006450e1002e00320069
:1006d0006420e100330032006150e1002f0032005d
:1006e0006120e1003100320085855500eb07b00044
:1006f0000900200008042000050037000804440019
:1007000089844c000a0031000603430087834b00b4
:100710000001530081815b00f8ff33000203be003b
:100720000800a0000804440089844c00f6ff39004a
:10073000c639dd0083017300010032001300200080
:100740008904d1000884d3000998a3000500320071
:100750000800a7000300a0008904d1000884d3008a
:100760008b05e8008904d1000884d3000001eb0068
:100770000281d2004900070001f0a1000cf0a7009f
:1007800001f0a0007c0037006420e1007e00320010
:100790000801be000200be00f7ff37006120e10043
:1007a000790032006000b800f3ff3700000020003d
:1007b00001f82700f0ff37000001be0075000700b8
:1007c0000470a70003f0a10003f8a30013003a008f
:1007d0006509b10010003200090035006928e10008
:1007e0000200350001002800000005000000400064
:1007f000818048008502e900fcff3a000000060005
:10080000f88f4200050035008100d1000080d30040
:100810008502e800fcff3a00000006008000eb00c3
:1008200000000500839f68000100e00002003d0019
:1008300060001000e08018000300e00002003d00ae
:1008400060011100e0811900670007004f00e0001f
:1008500002003b0060001000e0801800000006006d
:10086000811f78000100e00002003d0060001000e0
:10087000e08018000300e00002003d00600111006c
:10088000e0811900680007004f00e00002003b0013
:1008900060001000e08018000000060081002000c9
:1008a000618055000b003d000b00200061fe2f0011
:1008b0000100e1001d0034008281710061016400cb
:1008c0008904d1000884d3000000e800faff3a0050
:1008d00071002000610064000300700002006000ed
:1008e0000900320061044400e0844c000988a5003e
:1008f000050032008b05e8006808e10002003a00bc
:100900008904d1000884d300f20f20000258e100ce
:1009100005003d00c75ddd00f907b2008980750064
:1009200008007800000006000bf827008b00780014
:10093000000005000004be00160007000003be0012
:100940000405be000200be0012000700844f7500bf
:10095000000006000200be006450e1000500360001
:100960006420e100020036000968a30001003a009b
:100970000800be000160a0004f0678004f05be00d1
:100980004f04be0000000600f0ff2f00f1ff27001b
:10099000f9ff3700c70ade00f107b200f50fb20019
:1009a00008003200e1cf4200020032000170a000d6
:1009b00024000500810f70000100320004080500ca
:1009c00044000500810f700002003a001400050089
:1009d0008502e9000000400081c04800fcff3b00a8
:1009e0000170a000240005006022b800060220006b
:1009f0000000d0008180d2000482d2008582d20023
:100a00000000a0000202520083825a00030031005d
:100a10000202420083824a000000a1000603e900ae
:100a2000f3ff3a0000000600efff07000400be00dd
:100a300000000600881f7800000478005001be0006
:100a40004000be00040040008580480006014900c7
:100a500087814900009cbe000294be000400e100b2
:100a60000588e1000690e1000798e10002003100ee
:100a7000680044001008e8004f04780000000600f9
:100a8000f4874700889fbe008a9fbe008c9fbe00ef
:100a90008e1f78000205be000004be00d4b79f0080
:100aa000e5b79f00f6b79f0087bf9f000000eb00ef
:100ab000c0b79f00b0b79f00a0b79f0090b79f003e
:100ac00080b79f000d042000bfb097004fb0970083
:100ad000000140000000e0000f003d004f08de0074
:100ae00000007100c0b79f009e00070001003d009c
:100af00012002000a100070001003d0012002000ac
:100b0000a6000700b1000700b60007000f00400074
:100b1000c8ff0700220037004f08de000006710002
:100b2000ccb79f008f00070001003d00120020009d
:100b30009200070001003d0012002000970007000e
:100b4000a20007000fb297009fb297002fb3970043
:100b5000bfb39700a90007000000520081805a002f
:100b600002015b0083815b0080b79f0091b79f000b
:100b7000a2b79f00b3b79f000007eb009f000700dc
:100b80000020e10001a8e10002b0e10003b8e100ab
:100b9000010031001e0020000e005600c0b79f006b
:100ba0004fb297000400e00007003500100020005d
:100bb000010020006011b8000804700089847000f2
:100bc0000a0571008b8571008d06e900beff3a00b1
:100bd0000400e00003003d00820007000f00400019
:100be00094ff07004fa897000000e00004003a00bf
:100bf0000fb497009fb497002fb59700bfb597002b
:100c0000940007004f0778004f06be004f05be0056
:100c10004f04be004f01b10000000600881f78009d
:100c200018002000881f780095ff07008f87e900d3
:100c30004f04780000000600801feb0090ff0700c3
:100c40008f87e90000000600889fbe008a9fbe00d3
:100c50008c1f78006e00070007003d00730007003e
:100c6000e00f5b00e08f5b0007003d0032000700f3
:100c70000006eb00040037003400070002003d00ce
:100c80002a0007001c00200072000700e3ff070095
:100c90000203be000002be000c00e00001003200b2
:100ca000220007000400be000601be004f067800c7
:100cb0004f05be004f04be0000000600889fbe0026
:100cc0008a9fbe008c1f78005100070005003d0080
:100cd00056000700e00f5b00e08f5b0006003d0060
:100ce000040037001900070003003d006000b80051
:100cf0006011b8001000070056000700ceff070083
:100d00000203be000002be000c00e0000100320041
:100d1000060007000400be000601be004f06780072
:100d20004f05be004f04be00000006006000b80082
:100d30006011b8000000370004025000858258009e
:100d40000603590087835900000006000006eb00e7
:100d5000e00f5200e08f5a00e00f5b00e08f5b0075
:100d6000000006000180400090b79f000001eb00ea
:100d70008fb097000100e000000006000200700044
:100d800090b79f000180400080b79f000001eb00fa
:100d9000ffa897000100e0000000060002007000bc
:100da00080b79f00018040006faa9700cf20de002f
:100db00001007000f0af9f00040242002500070010
:100dc0004f18de000002720000000600e4af9f0032
:100dd0000804440089844c000a054d008b854d00b1
:100de000000006003fb29700cfb297005fb39700b4
:100df000efb3970000fe2f00000006003fb0970001
:100e0000cfb097005fb19700efb1970000000600e8
:100e10000205be000004be00e00f5000e08f580045
:100e2000e00f5900e08f5900000006006000b80094
:100e30006011b80008045000898458000a05590060
:100e40008b8559001c002000e00f5200e08f5a00f3
:100e5000000006000800be000a01be0000000600f7
:100e60001421ef00d1088800f00888000000060077
:100e700021e2a9009560a9009580a9008560a900dc
:100e80008580a900000006008560a9008580a90072
:100e9000e7416000c419dd00910a2000914078000c
:100ea000f2c8b30082c0600083c070008000fd0003
:100eb000a9e0b7008000fd00800178000307b200c0
:100ec000c419de00a10a20009140780082cfb3004f
:100ed00082c0600083c070008000fd00aae0b700ff
:100ee0008000fd00680160004311de004311dd0059
:100ef00051092000914078000134a10082c07000a7
:100f00008000fd0095e0b7008000fd000008b20001
:100f10004700de004400dd005109200091407800c8
:100f20000144a10080c070000100780095e0b70086
:100f3000000006004211880000118800111188008d
:100f4000010037003011800022c2bf000008a3005a
:100f5000fcff3a008560a9000000060080007800d0
:100f600020c2bf0066406000e64f50000100320022
:100f7000f10fb200211188000000060022c2bf005c
:100f8000610060000000060020c2bf0066406000f3
:100f9000e64f500002003a003011800000000600c9
:100fa00030118000f00fb200000006001041780000
:100fb000b141510003003a000000e8000204e000e3
:100fc000faff3a000300fb000000060080017800f1
:100fd00000017800010037000201e8001204e0007f
:100fe000fdff3a0031407800005978000004e0002d
:100ff000fcff3a0003007800000006008001780042
:101000000001780031407800005978000004e000c9
:10101000fcff3a0003007800000006000000fa0020
:10102000cfb8970068815700601e220008000700b3
:101030000080fa0000000600800078003004e00024
:10104000feff3a00010050000000e9000000060029
:10105000fa874700889fbe008a9fbe008c9fbe0013
:101060008e1f7800f0b79f000107780082bf9f00b5
:101070000000eb00c0b79f00130237008046eb0072
:1010800050c2b30080cf5000090032000100fb00c5
:10109000ffb0970017020700e10f40000a0232007c
:1010a000cfb097008100e800c1b79f00060237006b
:1010b0009e407800d0c2b30080cf50000c003200b8
:1010c00007003c006d40500080cf50000a00320005
:1010d0006b40400080cf50000e003a0008003700ff
:1010e00000c3b30080cf50000a003a00060037006a
:1010f0000d34a000050037000d04a00003003700e8
:101100000d14a000010037000d24a0000e07e80018
:10111000e7ff37000d18a300010032000d04a10005
:101120000d38a300010032000d24a1000100fb00d6
:1011300002fd2f0002004000e90f50000e003e00ab
:101140000002eb00d4b79f00820178005fb39700e4
:101150006a30b9001e01fb0000014100030141009b
:10116000d2b79f005e00fb0003004000e90f500073
:101170000b003e00f5ff37000006eb00dcb79f00d8
:10118000a0c2b30080cf500005003a000fb897000e
:10119000c000780080bf9f00d1b79f000e07e80015
:1011a0000001eb0092b79f00e0c2b3009e4f100019
:1011b00017003a008e00e80064405000914f100084
:1011c00002003200010778000c0037000fba9700c8
:1011d0004403780084bf9f0096b79f000e87e80005
:1011e0000b0037001fb697006a60b900000041008d
:1011f0000300400090b79f000e07e8001e01fb00af
:1012000003fd2f0003004100e90f5000f5ff3600f9
:10121000be407800a1df9f0030c7b30080cf5000f0
:101220001a00320009003c007040500080cf50008e
:10123000640032006940400080cf50000a00320054
:101240000104e000a40132007d00370050c7b30064
:1012500080cf50007e0032006340400080cf5000bd
:1012600077003a00060037000040eb000d48a3006d
:1012700001003a0000c1b30080c67600e4ff3700e9
:101280008d4278000574a000730037008fb8970076
:101290004100780081bf9f00000478000000e0005a
:1012a00001003a00285b22008004eb0001003700b7
:1012b0008104e80089007800088044001004e00000
:1012c000fbff3a001fb197000200e000030032006c
:1012d000890f510001003100820478000002eb0008
:1012e00084b79f005fb39700890f53000200360058
:1012f0000900530080b79f004368de00e1066000ec
:101300001b003a000d06780009003700ffb0970077
:101310000002200077010700e10f400003003200c7
:101320004fb097000000e800c0b79f000c06e8002f
:101330008fb09700810f5600f4ff3a000081eb0058
:1013400082b79f000a003700880078003100fb0058
:1013500001047800ffb0970066010700e10f40002c
:10136000030032004fb297000402e800c4b79f00a8
:101370000900e90080047800e10f4000f2ff3a0024
:101380000006eb000d00e0000a003a004e013700b5
:10139000ffb097000002200056010700e10f400057
:1013a000030032004fb397000603e800c6b79f0062
:1013b0000c06e8000fb09700800f5600f4ff3a00cb
:1013c000410137008fb897004100780081bf9f002e
:1013d000cf80de0001017800820178000205be00a6
:1013e0000004be000203be000002be004822de0070
:1013f000482edd0004027600a4df9f000d48a30004
:101400000a0032000404e00008003200e14f42000c
:1014100006003200b1fd2f0001804700044878002b
:10142000184098002900200002003700b0df9f001c
:1014300019002000b2fd2f0002844700a1ff3700f1
:10144000a4fd2f0004844700190020009dff3700f1
:1014500000ccb30080c276000583fb00e6b79f0096
:101460000648a300070032000fbe97004c00be00e4
:101470008cbf9f006011b8000205be000004be00d2
:10148000070037008fb897004100780081bf9f00a8
:1014900000047800090020000a0020000b00200052
:1014a0001fb197000200e00007003a00e00f54006f
:1014b000e08f5c00e00f5d00e08f5d0002003a000d
:1014c0001400200094b79f00efb09700010cb20009
:1014d00000082000808f500014003200000c200013
:1014e000808f500025003a0014c0b300e6ec2100c4
:1014f0000b0037000400fb004300dd000600400045
:101500005001be004000be000040e10001c8e10003
:1015100002d0e10003d8e100170039000442e800de
:10152000f44f5200f3ff3a0013003700000120008f
:10153000010020006011b80014c0b3000040e100b9
:1015400001c8e10002d0e10003d8e1000a0039003f
:10155000460020000000d0008180d2000281d2002d
:101560008381d2000603e900faff3a000442e80052
:10157000f04f5200f1ff3a00a4df9f002fde9700ea
:101580000c00fb009fb09700810f500002003d004f
:10159000a1df9f00040037001fb19700800f5100aa
:1015a00001003d0090b79f005fb297000400e0008b
:1015b000050032006fb39700630063000200320041
:1015c0000402e900d4b79f008582fb00a5b79f0005
:1015d0002fde97000c00fb008000eb00f1af9f00b6
:1015e0005fb19700800f51000200340000005100ed
:1015f000f0af9f002fb297000428a30035003200ff
:101600006fb39700e10063000418a3000c003200e0
:10161000d00220000100e00001003a000080e90053
:10162000ffb09700b3000700e10f40000e0032004a
:101630004fb697000c06e800ccb79f000a003700b1
:101640000100e00008003200ffb097000002200017
:10165000a8000700e10f4000030032004fb09700e0
:101660000000e800c0b79f00ffa897000100e0005d
:101670000f0032000006eb00ffb0970000032000cf
:101680009c000700e10f4000030032004fb19700bb
:101690000201e800c2b79f000c06e8007faa97008d
:1016a000840f5600f4ff3a000003eb00f6af9f00f2
:1016b0001fb697004360dd0061ec21008106400009
:1016c0004260dd00640650000000eb00b0b79f00f0
:1016d00066003700ffa897000100e000120032000a
:1016e0002fb19700680061000f003a0000067800f3
:1016f000ffb09700000220007e000700e10f4000cd
:10170000030032004fb297000402e800c4b79f0004
:101710000c06e8007fab9700860f5600f4ff3a00f6
:101720000006eb00fcaf9f006fb09700e100600087
:101730002fb197000218a3000c003200d002200045
:101740000100e00001003a000080e900ffb09700ce
:1017500068000700e10f4000d5ff32004fb297004c
:101760000402e800c4b79f00d1ff37000100e00089
:10177000cfff3200ffb09700000220005d0007009d
:10178000e10f4000caff32004fb397000603e800a4
:10179000c6b79f00c6ff3700efb09700010cb2003c
:1017a00000082000808f500010003200000c200044
:1017b000808f50001f003a003d02be002d03be0086
:1017c0000800be000a01be0014fd0700a4002000ae
:1017d000050020006033b80017fd070004c3b30004
:1017e00004424000a4df9f001200370014002000d4
:1017f000050020006033b8000c0078000000e9000c
:10180000050033000402d0008582d2000683d20096
:101810008783d200f9ff37000800be000a01be002e
:10182000fefc07006f006000945b220064427800b9
:10183000a4df9f00afd897000100fb00ffb0970026
:101840002c000700e10f4000030032004fb1970069
:101850000201e800c2b79f003fb297000402e8000f
:10186000b4b79f00e8865600640656003fb3970061
:101870001fb09700800f5300c7ff3a00afb097002a
:101880000138a300100032007fa997000200e00099
:101890000d0034000006eb00ffb0970000022000ae
:1018a00014000700e10f4000030032004fb2970020
:1018b0000402e800c4b79f000c06e8007fab970065
:1018c000860f5600f4ff3a00be407800a1df9f006b
:1018d0000104e000e9fd3a004fb097004f0778009f
:1018e0004f06be004f05be004f04be00af01b10061
:1018f00000000600889fbe00000178000104780007
:10190000b10090000118a3003d0032000198a3002f
:1019100003003a00180090000000e00038003a0090
:101920000190a0003104980082047800f90fb20001
:10193000180090000000e00002003a00280090002b
:10194000000c7800ea8f540006003a00380090003e
:101950000078a30003003a0088007800d00020003f
:10196000e4ff07009800900058009000808f50001e
:101970000b0032000100e800100498001800780005
:1019800009587800000c780011c0b300a060220054
:1019900001487800ea8f5400060032001900370031
:1019a000880078000940780019000700800478005a
:1019b00014003700380090000088a30011003200a6
:1019c00018019000a800900048009000d6fa070087
:1019d00098009000810f5000040032003800900001
:1019e0000003b300300498008084eb000000eb009b
:1019f0001004980028009000000c780001003700c7
:101a00008084eb00090078004f04be00000006004f
:101a10000200fa00889fbe00a0ff9f00010478002a
:101a2000b1009000810478000904b2000200320085
:101a30000000fb00360037000118a30005003a0043
:101a40000103b30031049800190498000080eb00f2
:101a50002f003700580090000000e00006003a0018
:101a60004800900012002000e6805700aefa070000
:101a70001904980024003700280090000000e000be
:101a800008003a006060220020049800000c7800f2
:101a90002000200050049800100498000130a0009d
:101aa0003104980018019000a800900048009000b0
:101ab0009dfa070028009000000c78000080eb00e1
:101ac0001004980018007800aff8970001587800cb
:101ad000000c78002ff89700ea4f50000a003a00f7
:101ae000380090000088a300070032001801900021
:101af000a8009000480090008bfa07001904980095
:101b0000a8009000010c7800aff897000100fb00de
:0c1b10004f04be000080fa000000060038
:020000040000fa
:020000040005f5
:0457f800be430000ac
:020000040000fa
:020000040005f5
:0457fc006a3e000001
:020000040000fa
:1000080090020000900200009002000090020000a0
:100018009002000090020000900200009002000090
:100028009002000090020000900200009002000080
:100038009002000090020000900200009002000070
:100048009002000090020000900200009002000060
:100058009002000090020000900200009002000050
:100068009002000090020000900200009002000040
:10007800e446000090020000900200009002000098
:10008800900200009002000090020000a88c00007e
:1000980090020000268800009002000090020000f4
:1000a8009002000090020000900200009002000000
:1000b80090020000900200009002000090020000f0
:1000c80090020000900200009002000090020000e0
:1000d80090020000900200009002000090020000d0
:1000e80090020000900200009002000090020000c0
:1000f80090020000be7d0000900200009002000007
:10010800900200009002000090020000900200009f
:10011800900200009002000090020000900200008f
:10012800900200009002000090020000900200007f
:10013800900200009002000090020000900200006f
:10014800900200009002000090020000900200005f
:10015800900200009002000090020000900200004f
:10016800900200009002000090020000900200003f
:1001780090020000900200004c3000009002000045
:10018800900200009002000090020000900200001f
:10019800900200009002000090020000900200000f
:1001a80090020000900200009002000090020000ff
:1001b80090020000900200009002000090020000ef
:1001c80090020000900200009002000090020000df
:1001d80090020000900200009002000090020000cf
:1001e80090020000900200009002000090020000bf
:0801f8009002000090020000db
:020000040000fa
:10020800900200009002000090020000900200009e
:10021800900200009002000090020000900200008e
:10022800900200009002000090020000900200007e
:10023800900200009002000090020000900200006e
:10024800900200009002000090020000900200005e
:10025800900200009002000090020000900200004e
:10026800900200009002000090020000900200003e
:10027800e446000090020000900200009002000096
:10028800900200009002000090020000a88c00007c
:1002980090020000268800009002000090020000f2
:1002a80090020000900200009002000090020000fe
:1002b80090020000900200009002000090020000ee
:1002c80090020000900200009002000090020000de
:1002d80090020000900200009002000090020000ce
:1002e80090020000900200009002000090020000be
:1002f80090020000be7d0000900200009002000005
:10030800900200009002000090020000900200009d
:10031800900200009002000090020000900200008d
:10032800900200009002000090020000900200007d
:10033800900200009002000090020000900200006d
:10034800900200009002000090020000900200005d
:10035800900200009002000090020000900200004d
:10036800900200009002000090020000900200003d
:1003780090020000900200004c3000009002000043
:10038800900200009002000090020000900200001d
:10039800900200009002000090020000900200000d
:1003a80090020000900200009002000090020000fd
:1003b80090020000900200009002000090020000ed
:1003c80090020000900200009002000090020000dd
:1003d80090020000900200009002000090020000cd
:1003e80090020000900200009002000090020000bd
:0803f8009002000090020000d9
:020000040000fa
:101b1c004e6f000020450000727200006f720000d2
:101b2c00005500006e6b00006e6f0000776e0000b9
:101b3c0020450000727200006f720000005500001a
:101b4c006e6b00006e6f0000776e0000206300006b
:101b5c006f6d00006d6100006e64000000550000a8
:101b6c006e6b00006e6f0000776e0000207300003b
:101b7c0075620000206300006f6d00006d61000055
:101b8c006e640000206e0000616d000065000000b6
:101b9c00496e0000766100006c6900006420000052
:101bac0070610000726100006d65000074650000da
:101bbc0072280000732900000050000061720000c0
:101bcc00616d00006574000065720000206f0000fc
:101bdc0075740000206f0000662000007261000028
:101bec006e670000650000004932000043200000d1
:101bfc006275000073200000697300002062000011
:101c0c0075730000792000006f720000206e0000d8
:101c1c006f7400002072000065730000706f00008c
:101c2c006e640000696e00006700000044650000ef
:101c3c00766900006365000020770000726900007f
:101c4c007465000020740000726100006e73000067
:101c5c0061630000746900006f6e00002066000074
:101c6c00616900006c6500006400000044650000c0
:101c7c007669000063650000207200006561000059
:101c8c006420000074720000616e0000736100003b
:101c9c0063740000696f00006e2000006661000034
:101cac00696c0000656400000045000045500000b0
:101cbc00524f00004d200000626f00006f74000056
:101ccc00207300006574000020660000616900004c
:101cdc006c65000064000000454500005052000097
:101cec004f4d0000206200006f6f00007420000058
:101cfc00676500007420000066610000696c0000dc
:101d0c00656400000045000045500000524f000083
:101d1c004d200000777200006974000065200000ff
:101d2c0062790000746500002066000061690000a3
:101d3c006c65000064000000454500005052000036
:101d4c004f4d00002072000065610000642000000f
:101d5c006279000074650000206600006169000073
:101d6c006c65000064000000454500005052000006
:101d7c004f4d000020770000726900007465000070
:101d8c00206e000020620000797400006573000072
:101d9c0020660000616900006c65000064000000b2
:101dac0045450000505200004f4d000020720000cd
:101dbc0065610000642000006e2000006279000064
:101dcc00746500007320000066610000696c0000ff
:101ddc00656400000045000045500000524f0000b3
:101dec004d200000666f0000726d000061740000f1
:101dfc0020660000616900006c6500006400000052
:101e0c00546500006d700000206900006e690000d0
:101e1c007420000065720000726f000072000000f8
:101e2c00546500006d7000002072000065610000b8
:101e3c006420000065720000726f000072000000e8
:101e4c00496e0000766100006c690000642000009f
:101e5c006e7500006d62000065720000206f00005e
:101e6c006620000070610000726100006d6500006a
:101e7c007465000072730000004e0000756d000068
:101e8c006265000072200000746f00006f2000007b
:101e9c006269000067000000496e00007661000076
:101eac006c690000642000006e7500006d6200001b
:101ebc0065720000004900006e760000616c000045
:101ecc0069640000204c00004544000020730000b1
:101edc0074610000746500002e2000004d75000038
:101eec0073740000206200006520000030200000a8
:101efc006f72000020310000004900006e76000077
:101f0c00616c00006964000020620000757a0000ba
:101f1c007a65000072200000706500007269000094
:101f2c006f6400002e2000004d75000073740000db
:101f3c00206200006520000030200000746f00005b
:101f4c0020310000303000000052000054430000eb
:101f5c00204900006e6900007420000065720000ca
:101f6c00726f000072000000525400004320000009
:101f7c004765000074200000546900006d65000086
:101f8c0020650000727200006f72000000520000a9
:101f9c0054430000204900006e760000616c000084
:101fac006964000020740000696d00006500000089
:101fbc005254000043200000496e0000766100007e
:101fcc006c6900006420000064610000746500000e
:101fdc000052000054430000204900006e760000bf
:101fec00616c00006964000020770000616b0000e8
:101ffc006575000070000000525400004320000082
:10200c00496e0000766100006c69000064200000dd
:10201c00616c0000617200006d20000073650000af
:10202c007400000053440000206900006e69000039
:10203c007420000065720000726f000072000000d6
:10204c005344000020630000617200006420000013
:10205c006465000074650000637400002065000076
:10206c00727200006f7200000053000044200000e8
:10207c007772000069740000652000006572000032
:10208c00726f0000720000005344000020720000c8
:10209c00656100006420000065720000726f000032
:1020ac0072000000496e0000766100006c6900004f
:1020bc006420000064650000766900006365000020
:1020cc00004900006e760000616c0000696400003d
:1020dc00206d00006f64000065000000496e000078
:1020ec00766100006c6900006420000064650000eb
:1020fc0073740000696e000061740000696f000069
:10210c006e000000496e0000766100006c690000f2
:10211c0064200000736100006d7000006c650000ad
:10212c007200000041430000434d00005452000077
:10213c00207500006e6b00006e6f0000776e000063
:10214c00204900004400000041430000434d0000c2
:10215c005452000020720000656700006973000093
:10216c007465000072200000777200006974000032
:10217c006520000066610000696c00006564000069
:10218c0000410000434300004d5400005220000069
:10219c0072650000676900007374000065720000ce
:1021ac002072000065610000642000006661000080
:1021bc00696c00006564000000410000445300009d
:1021cc003132000038320000207500006e6b0000c8
:1021dc006e6f0000776e0000204900004400000084
:1021ec00414400005331000032380000322000001e
:1021fc006d6f000073730000696e000067200000b3
:10220c00706f000077650000723a00002035000006
:10221c00762c000020310000327600002c200000cb
:10222c002d31000032760000000000005245000005
:10223c00434f00004e4e0000454300005445000043
:10224c00443a0000206e000065740000776f0000b7
:10225c00726b0000206300006f6e00006e65000062
:10226c0063740000696f00006e200000726500004e
:10227c00636f000076650000727900002073000027
:10228c0075630000636500007373000066750000e1
:10229c006c210000004e00004f5400002d43000044
:1022ac004f4e00004e4500004354000045440000d2
:1022bc003a200000636f0000756c0000646e000033
:1022cc002774000020720000656300006f76000028
:1022dc0065720000206e000065740000776f0000ce
:1022ec00726b0000206300006f6e00006e650000d2
:1022fc0063740000696f00006e2100000053000041
:10230c00534300004f4d0000504c0000455400005a
:10231c00454400003a200000636f00006d7000001f
:10232c006c6500007465000064200000737400008c
:10233c006f720000696e0000672000007468000076
:10234c006520000072650000717500006573000067
:10235c0074650000642000006e7500006d200000a4
:10236c006f660000206200006c6f0000636b000061
:10237c007300000054530000434f00004d50000008
:10238c004c45000054450000443a00002063000016
:10239c006f6d0000706c00006574000065640000d7
:1023ac0020740000726100006e7300006d69000003
:1023bc0074740000696e00006720000074680000ef
:1023cc0065200000726500007175000065730000e7
:1023dc0074650000642000006e7500006d20000024
:1023ec006f660000206200006c6f0000636b0000e1
:1023fc00730000004f530000544300004f4d000089
:10240c00504c000045540000454400003a200000a8
:10241c00636f00006d7000006c6500007465000057
:10242c006420000074720000616e0000736d000087
:10243c0069740000746900006e670000207400006d
:10244c006865000020720000657100007565000071
:10245c007374000065640000206e0000756d000050
:10246c00206f000066200000626c00006f630000ab
:10247c006b730000004100005050000053540000ea
:10248c004f50000050450000443a0000206100000d
:10249c00707000006c6900006361000074690000da
:1024ac006f6e000020730000746f000070700000ed
:1024bc0065640000004700006f6900006e67000053
:1024cc00207400006f200000736c00006565000034
:1024dc00702e00002e2e00000d0a00000049000096
:1024ec002068000061760000652000007761000024
:1024fc006b6500006e200000757000002066000007
:10250c006f720000207300006f6d000065200000ea
:10251c0072650000617300006f6e00000d0a000010
:10252c00006100007070000020770000616b0000fb
:10253c00650000000d0a0000576100006b69000087
:10254c006e67000020750000702e00002e0d00003c
:10255c000a000000484500004144000045520000bc
:10256c002d4200004c4f0000434b00003a2000006d
:10257c00002000003c3e000020730000746100004d
:10258c00727400002053000065630000746f00003b
:10259c00723a000020000000203c00003e200000a9
:1025ac006e7500006d2000006f6600002042000078
:1025bc006c6f0000636b0000733a00002000000099
:1025cc00203c00003e2000004163000074690000c4
:1025dc007665000020730000656e0000736f0000cc
:1025ec00727300003a200000006200006f7400005b
:1025fc0068200000414400005331000032380000d4
:10260c0032200000616e0000642000004d4d00007f
:10261c00413800003435000031510000004d0000fd
:10262c004d410000383400003531000051200000cd
:10263c006f6e00006c790000002000003c3e000032
:10264c0020530000746100007274000020740000bc
:10265c00696d0000653a0000200000002f000000aa
:10266c00202d0000200000003a000000203c00005b
:10267c003e20000043540000524c00005f5200000a
:10268c0045470000313a000020000000203c0000cb
:10269c003e20000043540000524c00005f520000ea
:1026ac0045470000323a000020000000203c0000aa
:1026bc003e200000585900005a5f000044410000c1
:1026cc00544100005f430000464700003a200000e0
:1026dc0000000000312e0000303400002e320000cb
:1026ec002f3100002f320000303100003300000089
:1026fc000d0a000057690000736400006f6d000044
:10270c002d530000746f00006e6500002c2000003b
:10271c00576500006c6300006f6d000065210000c0
:10272c000d0a0000000d00000a200000202000000f
:10273c0020200000537400006172000074690000d6
:10274c006e6700002057000049530000444f000002
:10275c004d5f0000535400004f4e00004520000018
:10276c004d6f000064650000000d00000a200000a1
:10277c0020200000202000005246000020540000c1
:10278c00726100006e7300006365000069760000e2
:10279c00657200003a2000004d52000046340000e3
:1027ac0039580000410000000d0a000020200000f4
:1027bc0020200000204600006561000074750000b8
:1027cc00726500002050000032500000204d0000c7
:1027dc006f640000650000007365000074740000f5
:1027ec00696e000067200000776100006b650000d7
:1027fc0075700000206100006c610000726d0000bb
:10280c00207400006f20000061200000646500004f
:10281c0066610000756c0000742000002d20000023
:10282c00313000003a30000030200000414d0000f3
:10283c00206f00006e20000074680000652000000e
:10284c00666900007273000074200000646100006f
:10285c00792000006f66000020740000686500009d
:10286c00206e000065780000742000006d6f000081
:10287c006e7400006800000066610000696c000066
:10288c0065640000207400006f2000007365000078
:10289c00742000007468000065200000616c00006a
:1028ac00617200006d2c0000207300007469000040
:1028bc006c6c0000207700006f7200006b690000e8
:1028cc006e6700002e2e00002e00000073680000c2
:1028dc0075740000746900006e67000020640000cd
:1028ec006f7700006e2e00002e2e00002067000077
:1028fc006f6f00006420000062790000652e0000fc
:10290c00005000006f77000065720000205300003b
:10291c007461000074750000733a0000000d000033
:10292c000a09000041430000205000006f770000ae
:10293c0065720000204700006f6f0000643a0000d1
:10294c002000000030000000310000000d0a0000e3
:10295c000955000053420000205000006f77000022
:10296c0065720000204700006f6f0000643a0000a1
:10297c00200000000d0a0000095300005441000023
:10298c00543100003a200000000d00000a0900003c
:10299c005354000041540000323a00002000000063
:1029ac000d0a0000000d00000a0900004261000041
:1029bc0074740000657200007920000073740000cc
:1029cc0061740000757300003a20000000200000c4
:1029dc002d200000006300006f6d0000706c000083
:1029ec0065740000656c00007920000066750000bd
:1029fc006c6c0000003300002f34000020740000c9
:102a0c006f200000667500006c6c00000031000047
:102a1c002f320000207400006f200000332f0000c4
:102a2c0034200000667500006c6c00000033000060
:102a3c002f340000207400006f200000312f0000a4
:102a4c0032200000667500006c6c00000061000014
:102a5c006c6d00006f73000074200000656d000049
:102a6c007074000079000000203500005620000032
:102a7c00656e0000616200006c650000643b000044
:102a8c00002000003556000020640000697300002f
:102a9c00616200006c650000643b000000200000d7
:102aac003132000056200000656e000061620000ab
:102abc006c650000643b0000002000003132000017
:102acc00562000006469000073610000626c000015
:102adc00656400003b000000202d00003132000036
:102aec0056200000656e0000616200006c650000fd
:102afc00643b0000002000002d3100003256000025
:102b0c002064000069730000616200006c650000c5
:102b1c00643b00000057000069730000646f000004
:102b2c006d65000020530000746f00006e6500009e
:102b3c0020530000572000005665000072730000ff
:102b4c00696f00006e3a0000200000002048000071
:102b5c00572000005665000072730000696f00007a
:102b6c006e3a000020000000000000000000000091
:102b7c000000000000000000000000000000000049
:102b8c000000000000000000000000000000000039
:102b9c000000000000000000000000000000000029
:102bac000000000000000000000000000000000019
:102f6c0000000000000000006e6f0000746500009f
:102f7c003a200000666c00006173000068200000bd
:102f8c00666f0000726d000061740000206d00001f
:102f9c00696700006874000020740000616b000019
:102fac00652000006f760000657200002061000053
:102fbc006e200000686f0000757200002074000025
:102fcc006f200000636f00006d7000006c650000e6
:102fdc0074650000002e0000000000005478000012
:102fec0052780000202d0000202000004e6f0000c1
:102ffc0020450000727200006f7200000054000047
:10300c0078520000782000002d2000004e6f000048
:10301c00206300006f6e00006e650000637400009a
:10302c00696f00006e200000666f0000756e000076
:10303c00640000005478000052780000202d00003d
:10304c0020430000616e0000206e00006f740000d1
:10305c00206a00006f6900006e200000746f000091
:10306c0020610000206e000065740000776f000086
:10307c00726b0000005400007852000078200000b1
:10308c002d200000436100006e2000004e6f0000f8
:10309c0074200000496e000074690000616c00002f
:1030ac00697a000065200000646500007669000004
:1030bc006365000000540000785200007820000086
:1030cc002d20000044690000642000006e6f000099
:1030dc0074200000726500006365000069760000d2
:1030ec006520000070610000636b000065740000d7
:1030fc000054000078520000782000002d200000c1
:10310c00476f0000742000006f6e00006c790000a7
:10311c00207000006172000074690000616c000096
:10312c0020700000616300006b65000074000000fb
:10313c005478000052780000202d0000205500002b
:10314c006e610000626c000065200000746f00006e
:10315c0020730000656e00006420000061200000f8
:10316c0070610000636b0000657400000054000087
:10317c0078520000782000002d20000052650000dd
:10318c00636500006976000065640000207700002c
:10319c00726f00006e67000020610000636b00001e
:1031ac002073000065710000756500006e630000ff
:1031bc00652000006e7500006d62000065720000f5
:1031cc000054000078520000782000002d200000f0
:1031dc0052650000636500006976000065640000bc
:1031ec0020770000726f00006e6700002064000002
:1031fc0061740000612000007365000071750000af
:10320c00656e000063650000206e0000756d0000a7
:10321c0062650000720000005478000052780000d3
:10322c00202d00002052000065630000656900003d
:10323c007665000064200000777200006f6e00005d
:10324c006720000070610000636b00006574000073
:10325c00206c0000656e00006774000068000000c0
:10326c005478000052780000202d000020520000fd
:10327c00656300006569000076650000642000004d
:10328c00777200006f6e000067200000626c000017
:10329c006f6300006b200000747900007065000003
:1032ac000054000078520000782000002d2000000f
:1032bc0052650000636500006976000065640000db
:1032cc00207500006e6b00006e6f0000776e0000c2
:1032dc0020700000616300006b650000740000004a
:1032ec005478000052780000202d0000205200007d
:1032fc0065630000656900007665000064200000cd
:10330c00696e0000766100006c69000064200000aa
:10331c0070610000636b00006574000000540000d5
:10332c0078520000782000002d200000526500002b
:10333c006365000069760000656400002069000088
:10334c006e760000616c0000696400002070000063
:10335c00616300006b650000742000007472000053
:10336c00616900006c6500007200000000450000ff
:10337c006e65000072670000792000005363000046
:10338c00616e00006e6900006e6700000053000063
:10339c007461000072740000204300006f6e000026
:1033ac006e20000043680000616e000023000000e6
:1033bc004b00000000000000700000000000000046
:1033cc00bb000000000000005101000000000000e4
:1033dc007d02000000000000d50400000000000089
:1033ec008509000000000000e5120000000000004c
:1033fc00a525000000000000254b00000000000087
:10340c002596000000000000252c000001000000a3
:10341c00255800000200000025b000000400000048
:10342c0025600000090000000d0a0000486f000034
:10343c0070700000696e0000672000004368000097
:10344c00616e00006e6500006c200000746f00005f
:10345c00200000000d0a000053740000617200008f
:10346c007420000057690000726500006c65000054
:10347c0073730000204300006f6d00006d75000039
:10348c006e69000063610000746900006f6e0000db
:10349c00206f00006e20000043680000616e000089
:1034ac006e6500006c200000000d00000a0000009a
:1034bc000d0a00000d0a00004d79000020410000ab
:1034cc006464000072650000737300003a20000011
:1034dc0030780000002000002043000068610000ec
:1034ec006e6e0000656c00003a200000000d0000bc
:1034fc000a4300006f6e00006e65000063740000ec
:10350c00696f00006e2000002020000020200000c9
:10351c0050650000657200004c6f00006e67000083
:10352c0041640000647200006573000073200000a9
:10353c002020000020200000506500006572000073
:10354c00496e0000666f00000d0a000000200000ac
:10355c00202000002020000020200000202000005f
:10356c00202000002020000000200000200000008f
:10357c002020000020200000000d00000a0d00009b
:10358c000a4300006f6e00006e650000637400005b
:10359c00696f00006e200000202000002020000039
:1035ac0050650000657200004c6f00006e670000f3
:1035bc004164000064720000657300007320000019
:1035cc0020200000202000005065000065720000e3
:1035dc00496e0000666f00000d0a0000000d00002f
:1035ec000a530000636100006e2000004368000075
:1035fc00616e00006e6500006c200000000d000084
:10360c000a4500006e65000072670000792000001a
:10361c0053630000616e00002052000065730000cf
:10362c00756c0000747300003a0000000d0a000075
:10363c0043680000616e00006e6500006c200000a5
:10364c00003a000020000000200000000d0a0000dd
:10365c0043680000656300006b6900006e67000042
:10366c0020430000686100006e6e0000656c000075
:10367c00200000000d0a0000526500007379000064
:10368c006e630000687200006f6e0000697a0000c3
:10369c0065640000204300006f6e00006e65000042
:1036ac0063740000696f00006e200000746f0000ee
:1036bc0020430000686100006e6e0000656c000025
:1036cc00200000000d0a0000486f00007070000020
:1036dc00696e000067200000746f0000204300003a
:1036ec00686100006e6e0000656c00002000000038
:1036fc007700000072000000656500007072000029
:10370c006f6d000000720000746300000074000014
:10371c00656d0000700000006c6300006400000028
:10372c007379000073000000666c00006173000088
:10373c006800000061640000730000006163000019
:10374c00636d000074720000006100007070000076
:10375c00006c00006564000000620000757a0000d7
:10376c007a65000072000000737700006974000035
:10377c006368000000730000626f00006f7400004b
:10378c0000670000626f00006f740000007700009b
:10379c007269000074650000007200006561000031
:1037ac0064000000666f0000726d00006174000020
:1037bc00006700007665000072000000736900006d
:1037cc0064000000677000006f77000065720000f5
:1037dc0000730000706f000077650000720000003d
:1037ec0067650000727200000073000074690000cd
:1037fc006d650000007300006461000074650000da
:10380c0000670000746900006d650000006700002f
:10381c0064610000746500000073000077610000b3
:10382c006b6500007570000000730000616c000097
:10383c00617200006d00000067740000656d00008f
:10384c0070000000636c0000727300006372000073
:10385c0000730000746100007274000000730000bb
:10386c00746f00007000000072650000636f000050
:10387c006e6e00006563000074000000736c000045
:10388c00656500007000000073680000757400002e
:10389c00646f0000776e0000006300006f6e000024
:1038ac0066690000670000006763000064000000a8
:1038bc006d6900006e690000740000006763000011
:1038cc0061700000007700007365000063740000f5
:1038dc006f720000007200007365000063740000da
:1038ec006f72000000610000646300000073000050
:1038fc007300000074730000006f0000737400000c
:10390c000000000075730000620000007769000081
:10391c00726500006c65000073730000006e00009f
:10392c006f6e00006500000064750000616c0000a3
:10393c0000730000696e0000676c000065000000f9
:10394c00120100000002000002000000000800004c
:10395c00d80400000a000000000100000102000071
:10396c0000010000090200004300000002010000f9
:10397c0000c000003209000004000000000100003b
:10398c0002020000010000000524000000100000ed
:10399c0001040000240200000205000024060000bf
:1039ac0000010000052400000100000001070000d8
:1039bc00058100000308000000020000090400005b
:1039cc0001000000020a00000000000000070000d7
:1039dc000502000002400000000000000705000086
:1039ec008202000040000000000000000403000000
:1039fc0009040000340300004d00000069000000c1
:103a0c0063000000720000006f0000006300000003
:103a1c006800000069000000700000002000000039
:103a2c005400000065000000630000006800000006
:103a3c006e0000006f0000006c0000006f000000c2
:103a4c006700000079000000200000004900000021
:103a5c006e000000630000002e0000003403000024
:103a6c004300000044000000430000002000000060
:103a7c0052000000530000002d0000003200000036
:103a8c003300000032000000200000004500000060
:103a9c006d000000750000006c000000610000006b
:103aac0074000000690000006f0000006e00000050
:103abc002000000044000000650000006d000000c4
:103acc006f000000b89c0000fc9c0000009d0000f2
:103adc00349d000000950000000000000000000074
:103aec0001f9000000000000000000000887000041
:103afc00040000000000000009af000000000000fe
:103b0c00010000000a1b0000000000000100000082
:103b1c000cc3000001000000000000000daf00000d
:103b2c00020000000000000010ff00000000000078
:103b3c000000000011ff0000000000000100000068
:103b4c0012ff0000000000000100000018ff000040
:103b5c00000000000100000019ff00000000000040
:103b6c000100000020ff0000000000000000000029
:103b7c0021ff0000000000000000000026df000014
:103b8c00010000000000000037730000000000007e
:103b9c00000000003a2500000400000000000000b6
:103bac003b250000000000000000000029ff000081
:103bbc00040000000000000017ff000000000000df
:103bcc0000000000098000008080000080020000de
:103bdc0022220000221100000511000011530000e8
:103bec00554e0000004d00004f4e000000540000e8
:103bfc0055450000005700004544000000540000eb
:103c0c0048550000004600005249000000530000d7
:103c1c004154000000300000003000003000000073
:103c2c000000000000000000000000000000000088
:103c3c00000000000000000000000000000900006f
:103c4c0080800000808000005769000073740000c1
:103c5c006f6e000065200000544900004d450000c7
:103c6c003a200000003a0000005700006973000081
:103c7c00746f00006e650000204400004154000089
:103c8c00453a0000200000002f000000202d00000d
:103c9c0020000000323000003030000000410000f5
:103cac00445300003132000038320000206900001b
:103cbc00732000006e6f0000742000006163000030
:103ccc0074690000766500002e200000436f000030
:103cdc006e730000696400006572000020740000bf
:103cec00757200006e200000706f00007765000098
:103cfc00722000006f660000663a0000203500005c
:103d0c00762c000020310000327600002c200000c0
:103d1c002d310000327600002e0d00000a0000004c
:103d2c0030310000323300003435000036370000eb
:103d3c003839000041420000434400004546000071
:103d4c00000000003b200000006e00006f740000bb
:103d5c00653a0000206f00006e6c000079200000b6
:103d6c006669000072730000742000003631000098
:103d7c00206200007974000065730000206100006f
:103d8c0072650000207700007269000074740000f6
:103d9c00656e0000000000003030000000300000b4
:103dac000057000069730000746f00006e6500001e
:103dbc0020540000454d0000503a00002000000047
:103dcc002e00000020430000656c000073690000a9
:103ddc0075730000000000000606000006050000d8
:103dec0005040000040400000303000002020000ac
:103dfc000101000001010000deba00009672000013
:103e0c004e2a0000617000007020000073740000e6
:103e1c006f700000000d00000a57000049530000ad
:103e2c00544f00004e4500003e20000000000000f2
:103e3c006f6b0000000d00000a5700004953000092
:103e4c00544f00004e4500003e20000000000000d2
:020000040000fa
:103e5c000000fa00000000000080fa0000000600dc
:103e6c000600fa00931207000000e0001f02320067
:103e7c0001ff21000040eb008048780070fb8000bf
:103e8c004200de0061406000e340600080ff800083
:103e9c008180fb0063816000c1ff2f000100600086
:103eac000200700080ff880070fb80004300de0081
:103ebc006140600081ff80000080fb0061006000b9
:103ecc004301dd0070ff2f00808060008280700055
:103edc0081ff880070fb8000630060008040eb0075
:103eec0041479800e10f500002003a0012c0b300a5
:103efc004247980081ff8000ce4190000380fb0078
:103f0c00610060004501dd00f0fd2f008080600045
:103f1c008280700081ff880070fb80004700de000b
:103f2c006140600081ff80000080fb006100600048
:103f3c004601dd00f0fb2f00808060008280700065
:103f4c0081ff880071fb8000000820000080600069
:103f5c000000e0000200320080fb8000a0ff88001f
:103f6c0040f721009040780080ff21000148780044
:103f7c0090fb8000b0ff880060f721009040780033
:103f8c00a0ff21000148780050f7210090407800f4
:103f9c0090ff21000148780081ff80000002200082
:103fac00008060000000e000bc013200b0ff800027
:103fbc00104078000080fb0010079800700820006b
:103fcc009e009000808f50006c0032007008200022
:103fdc001e019000800f51000d003c0020082000b5
:103fec009e019000808f5100940032004008200008
:103ffc009e009000808f500092013200100820002b
:10400c001e019000800f51000e003200a0013700fd
:10401c00200920009e019000808f51005d0132002c
:10402c00700920009e009000808f5000de0032004e
:10403c00100920001e019000800f5100d0003200aa
:10404c00930137000040eb00004f7800b0ff800078
:10405c000000e8009040780040602200104078009a
:10406c0080cf500002003200e01207008d013700b3
:10407c005060220010407800e34f500002003a00dc
:10408c00da1207008701370019040700004f780087
:10409c005060220010407800e14f500008003a00b8
:1040ac0013c0b3009ecf11000500320020c0b30036
:1040bc009e4f10000200320030cfb300004f78004a
:1040cc0041fb21000040eb008048780040fb2100c0
:1040dc00104178008281fb0081f7210010c9b300e8
:1040ec0080f178008240e80040fb21000148780014
:1040fc0040fb2100104178008280fb0080f72100fa
:10410c009e417800837078008240e80040fb2100db
:10411c00014878001e04e0000300320010c0b30018
:10412c009e4f10000a003a0040fb2100104178001d
:10413c008281fb00c0ff21009040780080f72100b5
:10414c00817178008240e80040fb21000148780032
:10415c00a612070080ff80004300de006140600073
:10416c000080fb00a1ff800080017800120020007d
:10417c000000eb00ab0107004a0137005060220041
:10418c0010407800e24f50000200360097120700f2
:10419c0044013700b0ff80000000e8009040780038
:1041ac00406022001040780080cf500002003200a6
:1041bc008e1207003b01370041fb21000040eb0051
:1041cc008048780040fb2100104178008281fb0080
:1041dc0081f7210070c9b30080f178008240e800bb
:1041ec0040fb21000148780040fb21001041780081
:1041fc008281fb00c0ff21009040780080f72100f5
:10420c00817178008240e80040fb21000148780071
:10421c007612070080ff80004300de0061406000e2
:10422c000080fb00a1ff80008001780012002000bc
:10423c000000eb007b0107001a01370041fb210055
:10424c000040eb008048780040fb210010417800d2
:10425c008281fb0081f7210020c9b30080f1780036
:10426c008240e80040fb2100014878000040eb0050
:10427c0010479800280037001e4090000080fb007b
:10428c006500b900e400400060fb210000804000a4
:10429c001080fb004700de000004e0001b00320031
:1042ac001e4090000080fb006500b9008000780083
:1042bc0060fb210080804000a0ff8000e601070029
:1042cc000000e000110032001e4090000080fb0056
:1042dc006500b9006401400061fb21000040eb0067
:1042ec0000f1780040fb2100104178008281fb0036
:1042fc0081f721000040eb0080f178008240e8005b
:10430c0040fb210001487800060037001e40900059
:10431c000040e800104798001e409000e14f50000c
:10432c00d5ff3600311207001e409000e24f5000be
:10433c0009003a0040fb2100104178008281fb000b
:10434c0081f7210000cfb30080f178008240e800b3
:10435c0040fb21000148780080ff80004300de0014
:10436c00614060000080fb00a1ff800080017800ac
:10437c00120020000000eb002a010700c9003700e2
:10438c00b0ff80000000e800104078000080fb00c7
:10439c0060004000e10f500001003e005403070094
:1043ac0012120700bf00370050fb210010407800ac
:1043bc000042b2000004e0000400320051fb210076
:1043cc00f0cdb30091486000700037000040eb0066
:1043dc00104798001a0037001e4090000080fb0028
:1043ec006c00b9008000780000fc210000804000c7
:1043fc0090407800406022001040780080cf500040
:10440c000c003a00a2ff80001e4090000080fb00d0
:10441c006c00b9008000780000fc21000080400096
:10442c000000e800820078008b0107000000e0002b
:10443c0008003a001e4090000040e8001047980029
:10444c00e0ff2100904078001e409000814f50000a
:10445c00e1ff3900e0ff2100904078001e40900001
:10446c00814f500049003a001e409000e34f50002d
:10447c0046003e00e0ff2100104078008080fb00e9
:10448c0040602200104178006c08b9008000780070
:10449c0000fc21000080400002487800e0ff210071
:1044ac00104078008080fb0090ff210010417800c4
:1044bc006c08b900e800400000fc210000804000be
:1044cc0002487800e0ff2100104078008080fb005b
:1044dc00a0ff2100104178006c08b900e8004000f2
:1044ec0000fc210000804000124098000040eb00ce
:1044fc001047980012003700e0ff210010407800b0
:10450c000081fb001e4090008081fb00a1ff800019
:10451c001e4090000080fb0000804000104278009c
:10452c006c10b9008300400000fc210000804000aa
:10453c00144098001e4090000040e800104798007e
:10454c001e409000e34f5000ebff3600e0ff2100cf
:10455c00104078008080fb00b0ff80000000e80075
:10456c00104178006c08b900ea00400000fc210002
:10457c000080400002487800e0ff210010407800e5
:10458c008040e800e0ff2100014878009711070007
:10459c0044003700b0ff80000000e80010407800b5
:1045ac000004e00025003a000040eb0010479800a2
:1045bc001f0037001e4090000080fb006500b90012
:1045cc00e400400060fb2100008040001080fb00f4
:1045dc004700de000004e000120032001e40900094
:1045ec000080fb006500b9008000780060fb2100b2
:1045fc0080804000a0ff8000170107000000e00051
:10460c00080032001e4090000080fb006500b900dd
:10461c006401400061fb21000040eb0000f17800d8
:10462c00060037001e4090000040e800104798003c
:10463c001e409000e14f5000deff36006b1107006a
:10464c0018003700b0ff80000000e80090407800b0
:10465c00406022001040780080cf500002003200f1
:10466c00621107000f003700b0ff80000080e800e7
:10467c00104078005b040700a0a12900801f78007f
:10468c0063f207008f87e900581107000500370017
:10469c0050fb21001034a0000200370050fb210019
:1046ac001034a00080ff2100104078000004e000ce
:1046bc000a00320050fb210010407800704060006e
:1046cc000004e00005003a0050fb21001040780087
:1046dc000042b2000004e0000400320051fb210053
:1046ec0070cfb30091486000401107000080fa00c1
:1046fc00000006000800fa003007980050fb21006b
:10470c008040eb00014878000040eb00004f78003f
:10471c00070037001e80fb006500b90064014000f3
:10472c0061fb21000040eb0000f178001e4fe80017
:10473c0010c0b3009e4f1000f6ff3600e744070090
:10474c0041fb21000040eb00804878000060220013
:10475c00200798001e0090000010a0001007980081
:10476c001e0090000030a1000040a1000050a000ed
:10477c000060a100100798003e00900061406000ae
:10478c009e0090000080fb00610060004201dd0093
:10479c00b0ff2f00808060008280700011079800ad
:1047ac001e0090000000a100100798001e00900051
:1047bc00ae009000390f07004060220010407800d6
:1047cc0098010700c1ff21000040eb0080487800f1
:1047dc00c0ff210010407800804078000104a00048
:1047ec00c0ff210001487800506022001040780082
:1047fc000080fb004400dd0080407800c0ff2100f9
:10480c001040780000c0700080407800c0ff21008c
:10481c00014878009680a800100020000080fa0063
:10482c00000006001000fa003007980041079800bd
:10483c0052079800630798000040eb00204798004f
:10484c000040eb00704f98005e0090000000e0000c
:10485c000200320012c0b300724f98001e0090008c
:10486c007e4990008280fb0063816000c1ff2f00b5
:10487c000100600002007000100798000040eb007f
:10488c00604f98003e0090000000e00002003a00eb
:10489c0012c0b300624f98009e0090006e499000c9
:1048ac000280fb00610060004501dd00f0fd2f007f
:1048bc008080600082807000110798003e0090009c
:1048cc00614060009e0090000080fb006100600071
:1048dc004201dd00b0ff2f008080600082807000fc
:1048ec00110798006e009000614060009e009000df
:1048fc000080fb00610060004301dd0070ff2f00b1
:10490c008080600082807000110798001e0090006b
:10491c000060a100100798001e009000630060006a
:10492c00e10f500004003a001e0090000070a0003f
:10493c0010079800030037001e0090000070a100c3
:10494c00100798004e0090002007980040fb2100b3
:10495c00104078008041780082f721001e00900002
:10496c00ae009000150f0700000f780041fb2100ee
:10497c000040eb00804878001e0078000080fa00b0
:10498c00000006000200fa00000f78009e0178007b
:10499c000001eb008000eb0010002000a1ff0700dd
:1049ac000080fa00000006000800fa00204798007a
:1049bc00210798002e4090000080fb006500b90094
:1049cc00e400400060fb2100008040001080fb00f0
:1049dc004700de000004e0000d0032002e40900085
:1049ec000080fb006500b9008000780060fb2100ae
:1049fc00008040002e0190001100200009000700eb
:104a0c00000f78001e007800300798000200370075
:104a1c000000eb00300798003e0090000080fa0088
:104a2c00000006000800fa00100798002107980003
:104a3c0032079800be0190000001eb009e00900030
:104a4c000000eb0077ff0700000f78001e007800d5
:104a5c000080fa00000006000800fa001007980019
:104a6c00210798000040eb00004f78001000370041
:104a7c001e80fb00800078001e009000008040002b
:104a8c00104178001e80fb00800078002e00900002
:104a9c000080400010407800804f5100030032002d
:104aac000000eb0030079800060037001e4fe800ae
:104abc0030c0b3009e4f1000edff360010002000f8
:104acc00300798003e0090000080fa0000000600bd
:104adc000c00fa00204798003147980022079800f4
:104aec00330798002e4090000080fb005007980080
:104afc005e009000e10f50000a0032005e00900052
:104b0c00e20f50001e0032005e0090000000e0003a
:104b1c00010032001d0037001000200040079800f3
:104b2c001c0037000e00e800000278008041eb000a
:104b3c003e4190002e009000be00900081020700c4
:104b4c00004f78001e407800b600070000a3290033
:104b5c00801f78002ef107008f87e9001e40780037
:104b6c00683f0700b0a52900801f780028f10700d6
:104b7c008f87e900100020004007980005003700df
:104b8c000000eb0040079800020037000000eb002b
:104b9c00400798004e0090000080fa0000000600cc
:104bac001800fa00404f9800514f980050602200b6
:104bbc00904078002147980040c1b30010479800fe
:104bcc000040eb00004f78005e489000e14f500031
:104bdc0003003a00f00f2000300f980087003700d8
:104bec006e004700c34307007e0090008e089000c3
:104bfc0020079800310798002e019000be0190000c
:104c0c00a0762600f1ff2f000200400083804800b0
:104c1c002007980031079800516022000040eb00fb
:104c2c008048780050fb21001044a000670037003a
:104c3c0072004700af4307001e089000ae089000ba
:104c4c0040079800510798004e019000de0190003b
:104c5c002e009000be00900000015100818159008f
:104c6c006089290001002000800f5100818f5900bc
:104c7c00520036004e009000de0090002007980095
:104c8c00310798001e4fe90080c0eb009ecf10004a
:104c9c004e003a0010c0b300004f78001e40900048
:104cac000040e900104798001e409000e14f400082
:104cbc0006003a0051fb2100f0ceb3009148600091
:104ccc00f00f2000300f98004c00370041fb210002
:104cdc000040eb008048780040fb21001041780038
:104cec008281fb0081f7210010c8b30080f17800ad
:104cfc008240e80040fb21000148780040fb210085
:104d0c00104178008281fb004060220090407800c6
:104d1c0080f72100817178008240e80040fb21007f
:104d2c000148780040fb2100104178008281fb0093
:104d3c00c0ff21009040780080f72100817178003d
:104d4c008240e80040fb2100014878004e4890006a
:104d5c00e14f400006003a008001eb0012002000f9
:104d6c008000eb0010002000aefe0700130037009f
:104d7c004e4890000080fb006c00b9008000780069
:104d8c0000fc210000804000104078002500070046
:104d9c004e4890000080fb006c00b9008000780049
:104dac0000fc2100008040008000e8008001eb0046
:104dbc00120020000000eb009afe07002a000700fa
:104dcc000000e000010032000f00070050fb210042
:104ddc0010407800704060000004e00094ff3a003e
:104dec0050602200ae40900001487800d0ff2100b6
:104dfc00104078000080fb00300f98003e089000b7
:104e0c000080fa00000006000000fa0051fb2100af
:104e1c0070cfb30091486000740f07000080fa0057
:104e2c00000006000400fa00004f78008040eb0000
:104e3c001e407800700d07000000e00005003200f5
:104e4c00406022001e4878001000200010079800d7
:104e5c00020037000000eb00100798001e009000c5
:104e6c000080fa00000006000000fa00fcfb0700be
:104e7c0050fb21001080fb004300de00614060000d
:104e8c000080fb000080fa00000006000400fa001d
:104e9c00204798002e409000e24f50001a00360038
:104eac00e0a52900801f780059f007008f87e900e2
:104ebc000040eb0010479800090037001e4090009e
:104ecc000080fb00e30010000060220061407800cd
:104edc006d3e07001e4090000040e800104798000f
:104eec001e409000e34f5000f4ff360010a729003d
:104efc00801f780046f007008f87e9004060220091
:104f0c00104078007f3e07002e409000e14f50008b
:104f1c0038003e00d0a72900801f78003cf0070025
:104f2c008f87e9002e4090000080fb006500b900df
:104f3c00e400400060fb2100008040001080fb007a
:104f4c004700de000004e000670032002e409000b5
:104f5c004d3e0700d0aa2900801f78002cf00700d6
:104f6c008f87e9000040eb001047980015003700d0
:104f7c001e409000e34f50000b003e002e4090006e
:104f8c008080fb001e4090000080fb00630110003d
:104f9c006508b9008200400060fb21006140780088
:104fac00393e070004003700b0ab2900801f7800a1
:104fbc0017f007008f87e9001e4090000040e800c2
:104fcc00104798001e409000e74f5000e8ff360055
:104fdc00e0ab2900801f78000df007008f87e900f7
:104fec00b0a52900801f780009f007008f87e90021
:104ffc003d00370030ac2900801f780004f007001a
:10500c008f87e9000040eb00104798003300370011
:10501c001e4090000080fb006500b900e4004000d9
:10502c0060fb2100008040001080fb004700de0088
:10503c000004e000260032001e409000123e0700e3
:10504c00d0aa2900801f7800f1ef07008f87e900b4
:10505c000040eb00004f78001200370030c0b30066
:10506c009e4f10000a003e001e4090008080fb0006
:10507c001e80fb00630110006508b900820040002f
:10508c0060fb210061407800ff3d07000400370001
:10509c00b0ab2900801f7800ddef07008f87e90097
:1050ac001e4fe80070c0b3009e4f1000ebff36009f
:1050bc00e0ab2900801f7800d5ef07008f87e9004f
:1050cc00b0a52900801f7800d1ef07008f87e90079
:1050dc001e4090000040e800104798001e409000d1
:1050ec00e14f5000caff36000080fa0000000600b5
:1050fc000600fa000040eb001047980000c0eb00df
:10510c00004f780080ff210010407800e24f5000e3
:10511c0003003e00200020002007980069003700a3
:10512c000040eb0020479800210037002e409000f3
:10513c000080fb006500b900e400400060fb21002a
:10514c00008040001080fb004700de000004e000ff
:10515c000f0032002e4090000080fb006500b9006b
:10516c008000780060fb210080804000a0ff800060
:10517c0039fe07000000e0000a0032002e409000cb
:10518c00004f780010c0b300104798000b00370098
:10519c0000c0eb009e4f100002003a002e40900021
:1051ac00004f78002e4090000040e8002047980007
:1051bc002e409000e14f5000dcff360000c0eb00a9
:1051cc009e4f100003003a00100f2000200798009b
:1051dc003c00370050602200104078000004e000d2
:1051ec00040032001e4090000080fb002007980055
:1051fc00340037000040eb00204798000f003700c8
:10520c009e81fb002e4090000082fb00a1ff8000dd
:10521c002e4090000080fb00008040001041780080
:10522c006518b9008400400060fb21008270780092
:10523c002e4090000040e800204798002e4090003f
:10524c00e74f5000eeff36001e80fb006500b900f2
:10525c00e400400060fb21008080400000c8b300e7
:10526c00914870009e80fb00b0ff80000080e80039
:10527c001040780061406000614160006141610054
:10528c006508b900e400400060fb2100008040008c
:10529c0061416100e1cfb30010c86000104871009b
:1052ac00d0ff21001e48780051fb2100f0ceb30046
:1052bc0091486000bc1f07001e4090000080fb005e
:1052cc00200798002e0090000080fa0000000600d5
:1052dc002200fa0000579800120f9800230f980034
:1052ec0010002000010020001007980021079800f2
:1052fc0040602200104f78000040eb00604798009f
:10530c000b0037006e4090000080fb006c00b90071
:10531c008000780000fc21008080400000c0eb0081
:10532c00804878006e4090000040e800604798008c
:10533c006e409000e34f5000f2ff3600e0ff21007a
:10534c008040eb00014878000040eb00604798007b
:10535c00720037006e4090000081fb001e00900030
:10536c00ae009000820178008301e9000300330055
:10537c000000400081804800fbff37001e099000b0
:10538c00ae099000000278008102780002007800db
:10539c008300780000016200018062006102b800a5
:1053ac00740f9800051798007e0890008e109000de
:1053bc00c000dd0000002000700f9800011798005d
:1053cc007e0890008e1090006112b800740f980047
:1053dc00051798007e0990008e1190000200700055
:1053ec0083807000670160006000b800030020003b
:1053fc000200700083807000e00f5000e08f5800b6
:10540c004300320050af2900801f780000ef0700e6
:10541c008f87e9006e4090003a3d07006e40900087
:10542c0080fe070041fb21000040eb008048780023
:10543c0040fb2100104178008281fb0081f72100a4
:10544c0070c8b30080f178008240e80040fb210076
:10545c000148780040fb2100104178008281fb005c
:10546c00406022009040780080f721008171780024
:10547c008240e80040fb2100014878008001eb00ed
:10548c00120020008000eb0010002000e5fc07005b
:10549c0076004700974107003e089000ce08900028
:1054ac0040079800510798006ffe07000000e000cd
:1054bc000100320054fe07007a0047008d410700be
:1054cc005e089000ee089000600798007107980045
:1054dc006e019000fe0190004e009000de009000e6
:1054ec0000015100818159000e5090000080fb009a
:1054fc00c200dd00e09d2900008040001000be00cd
:10550c00800f5100818f590001003e00e6ff3700eb
:10551c006e4090000040e800604798006e4090009c
:10552c00ff4f50008bff36001e4078003dfe0700f9
:10553c00e0ff2100104078000080fb000080fa00a2
:10554c00000006002a00fa00200f9800310f980086
:10555c00025f9800135f9800540f980000c0eb0096
:10556c00004f980010002000010020002007980038
:10557c00310798001e5890000004e0000300320030
:10558c00f00f2000201798009300370050b029002e
:10559c00801f78009eee07008f87e9000040eb002b
:1055ac00204f9800860037002e4890000081fb00a9
:1055bc002e009000be009000820178008301e9006b
:1055cc00030033000000400081804800fbff3700df
:1055dc002e099000be09900000027800810278002c
:1055ec0002007800830078000001620001806200f4
:1055fc006102b80034179800451798003e109000cf
:10560c00ce109000c000dd00000020003017980084
:10561c00411798003e109000ce1090006112b80017
:10562c0034179800451798003e119000ce11900049
:10563c000200700083807000670160006000b80099
:10564c00030020000200700083807000e00f500007
:10565c00e08f5800570032000040eb0020479800c4
:10566c002e489000effd07007c0047002141070009
:10567c006e089000fe089000600798007107980073
:10568c0010c0b3006c0d070030479800be4090006e
:10569c002e40900080cf500002003600be4190009a
:1056ac0023479800000220000e0040001141070023
:1056bc000e1090009e109000000f9800110f980093
:1056cc000e0990009e0990006e009000fe00900064
:1056dc0000015100818159000e5890000080fb00a0
:1056ec00c200dd00e09d2900008040001000be00db
:1056fc00800f5100818f590001003e00e0ff370000
:10570c00c0b12900801f780041ee07008f87e900a7
:10571c002e4890007b3c070070b22900801f780057
:10572c003bee07008f87e9002e4090000080fb00c5
:10573c0052002000110009000280d8001047980088
:10574c000040eb00004f780003003700d0c2b300dc
:10575c00883c07001e4fe8001e4090009e4f100032
:10576c00faff3900a0b22900801f780028ee07004c
:10577c008f87e9002e409000433c0700ae4090001c
:10578c000e48900080cf50000a0031002e4290004d
:10579c00044f9800ae4a9000154f98005e08900098
:1057ac000000e000030032005e0890008e4890007c
:1057bc00014878002e4890000040e800204f9800e7
:1057cc002e489000ff4f500077ff36001e48900087
:1057dc000080fb00201798002e1090000080fa002b
:1057ec00000006001400fa00204f98000040eb0067
:1057fc00004f78003c0037006c004700bd400700ac
:10580c006e009000fe009000100798002107980091
:10581c0070004700b74007000e0890009e089000eb
:10582c0030079800410798003e019000ce0190008f
:10583c001e009000ae0090000001510081815900c3
:10584c0050b2240001002000800f5100818f5900bc
:10585c00efff360041fb21000040eb008048780050
:10586c0040fb2100104178008281fb0081f7210070
:10587c0040c8b30080f178008240e80040fb210072
:10588c000148780040fb2100104178008281fb0028
:10589c00406022009040780080f7210081717800f0
:1058ac008240e80040fb21000148780040fb2100c9
:1058bc00104178008280fb0080f72100ae499000f7
:1058cc00837078008240e80040fb2100014878009a
:1058dc008001eb00120020008000eb001000200083
:1058ec00d0fb07001e4fe80020c0b3009e4f1000f5
:1058fc00c1ff36002e4890004afd07000080fa00d8
:10590c00000006002400fa0000579800120f9800bf
:10591c00230f980040602200904078004147980087
:10592c0076004700734007003e089000ce089000b8
:10593c00400798005107980051fb210000c2b300aa
:10594c00914870000040eb00604798009b003700c6
:10595c001000200001002000008fbe000040eb0072
:10596c0050479800790037007a00470061400700e3
:10597c005e089000ee089000600798007107980090
:10598c006e019000fe0190004e009000de00900031
:10599c00000151008181590050b224000100200007
:1059ac00800f5100818f5900640036006e0090000a
:1059bc00fe00900040079800510798005e40900050
:1059cc00ff4f500066003e00060037005e4090001e
:1059dc000040e800504798005e409000ff4f500098
:1059ec0072003e005e4090000081fb001e00be0075
:1059fc00820178008301e9000300330000004000bd
:105a0c0081804800fbff37001e099000ae09900012
:105a1c000002780081027800020078008300780090
:105a2c0000016200018062006102b8000417980056
:105a3c00151798000e1090009e109000c000dd000d
:105a4c000000200000179800111798000e1090000d
:105a5c009e1090006112b80004179800151798005a
:105a6c000e1190009e119000020070008380700057
:105a7c00670160006000b8000300200002007000a5
:105a8c0083807000e00f5000e08f5800cfff320091
:105a9c00c0b22900801f78005ded07008f87e900f8
:105aac005e409000973b07005e409000ddfc0700d5
:105abc005e4090000040e8005047980041fb2100f8
:105acc000040eb008048780040fb2100104178003a
:105adc008281fb0081f7210070c8b30080f178004f
:105aec008240e80040fb21000148780040fb210087
:105afc00104178008281fb004060220090407800c9
:105b0c0080f72100817178008240e80040fb210081
:105b1c00014878000e5090000080fb006500b90031
:105b2c008000780060fb2100808040008001eb0049
:105b3c00120020000000eb003afb0700cafc070033
:105b4c000000e00001003200affc070050fb210018
:105b5c00104078000042b2000004e00082ff3a00de
:105b6c0050fb2100104078000042b2000004e0001d
:105b7c000e003a0000b42900801f780024ed0700c5
:105b8c008f87e90040602200104078005d3b0700e1
:105b9c00b0a52900801f78001ded07008f87e90054
:105bac0013002000730f98000e003700a8f80700b0
:105bbc006e4090000040e800604798006e409000f6
:105bcc00e24f500062ff36004e40900095fc0700fb
:105bdc0051fb2100f0cdb300914860000002eb00b6
:105bec00740f98007e0890000080fa0000000600f8
:105bfc000a00fa0020079800310798004060220044
:105c0c009040780021479800506022009040780026
:105c1c001147980030c0b3009300070063004700a1
:105c2c00000278008041eb00a2c0b3002e0090006f
:105c3c00be00900043fe0700004f78001e4090000d
:105c4c00890007002e40900076fc07002e40900043
:105c5c009e4f100003003a000000eb004007980034
:105c6c000e00370080b62900801f7800e8ec070092
:105c7c008f87e9001e407800223b0700b0a5290061
:105c8c00801f7800e2ec07008f87e9001e40780047
:105c9c00d4fe070011002000410798004e00900030
:105cac000080fa00000006000800fa006047980027
:105cbc006e409000e14f40003b003a000040eb008a
:105ccc0040479800340037004e4090000080fb00a5
:105cdc006500b900e400400060fb2100008040003a
:105cec001080fb004700de000004e00020003200c2
:105cfc0041fb21000040eb008048780040fb210074
:105d0c00104178008281fb0081f7210020c8b3008c
:105d1c0080f178008240e80040fb210001487800c7
:105d2c004e4090000080fb006500b90080007800b8
:105d3c0060fb2100808040008001eb0012002000fd
:105d4c000000eb00b7fa07000000eb00100798000a
:105d5c00030037001e0090000000e80010079800b8
:105d6c009e009000e0ff2000808f5000f9ff36006d
:105d7c004e4090000080fb006500b90064014000bb
:105d8c0061fb21000040eb0000f178004e409000d8
:105d9c000040e800404798004e409000e14f500012
:105dac00c9ff36002e0037006e4090000080fb00cb
:105dbc006500b900e400400060fb21000080400059
:105dcc001080fb004700de000004e00024003200dd
:105ddc0041fb21000040eb008048780040fb210093
:105dec00104178008281fb0081f7210020c8b300ac
:105dfc0080f178008240e80040fb210001487800e7
:105e0c006e4090000080fb006500b90080007800b7
:105e1c0060fb2100808040008001eb00120020001c
:105e2c000000eb007ffa07000000eb00000f780089
:105e3c00010037001e0fe800e0ff20009e0f10004d
